S01800006275696C642F6D6963617A2F6D61696E2E73726563E5
S11300000C945B010C944B060C9455060C945F06FF
S11300100C9469060C9473060C947D060C942709C1
S11300200C9487060C947A010C947A010C94AC1A03
S11300300C9405270C9415060C942B060C9491062D
S11300400C9404060C94AD1E0C947A010C947A0161
S11300500C947A010C947A010C947A010C947A0130
S11300600C9420060C947A010C947A010C947A0175
S11300700C947A010C947A010C947A010C947A0110
S11300800C947A010C947A010C947A01331F891F21
S11300908F1FE01FFB1F02203B20F62019212D217A
S11300A09D22D0225023DB2479237B23C623E22400
S11300B000002110422063308440A550C660E770E0
S11300C0088129914AA16BB18CC1ADD1CEE1EFF188
S11300D03112100273325222B5529442F772D66230
S11300E0399318837BB35AA3BDD39CC3FFF3DEE3D8
S11300F06224433420040114E664C774A444855480
S11301006AA54BB528850995EEE5CFF5ACC58DD527
S11301105336722611163006D776F6669556B446CF
S11301205BB77AA719973887DFF7FEE79DD7BCC777
S1130130C448E5588668A77840086118022823381F
S1130140CCC9EDD98EE9AFF9488969990AA92BB9C7
S1130150F55AD44AB77A966A711A500A333A122A6F
S1130160FDDBDCCBBFFB9EEB799B588B3BBB1AAB17
S1130170A66C877CE44CC55C222C033C600C411CBF
S1130180AEED8FFDECCDCDDD2AAD0BBD688D499D67
S1130190977EB66ED55EF44E133E322E511E700E0F
S11301A09FFFBEEFDDDFFCCF1BBF3AAF599F788FB7
S11301B08891A981CAB1EBA10CD12DC14EF16FE197
S11301C08010A100C230E3200450254046706760CF
S11301D0B9839893FBA3DAB33DC31CD37FE35EF3E7
S11301E0B1029012F322D23235421452776256721F
S11301F0EAB5CBA5A89589856EF54FE52CD50DC537
S1130200E234C324A014810466744764245405446E
S1130210DBA7FAB79987B8975FE77EF71DC73CD786
S1130220D326F2369106B0165766767615463456BE
S11302304CD96DC90EF92FE9C899E9898AB9ABA9D6
S11302404458654806782768C018E1088238A3280E
S11302507DCB5CDB3FEB1EFBF98BD89BBBAB9ABB26
S1130260754A545A376A167AF10AD01AB32A923A5E
S11302702EFD0FED6CDD4DCDAABD8BADE89DC98D76
S1130280267C076C645C454CA23C832CE01CC10CAE
S11302901FEF3EFF5DCF7CDF9BAFBABFD98FF89FC6
S11302A0176E367E554E745E932EB23ED10EF01EFE
S11302B000081C18141011241FBECFEFD0E1DEBFBC
S11302C0CDBF11E0A0E0B1E0E8EAF3E500E00BBF48
S11302D002C007900D92A231B107D9F712E0A2E152
S11302E0B1E001C01D92A539B107E1F70E942B25A9
S11302F00C94D3290C9400008FB7F894992708958F
S11303008FBF089580910D01882319F080E090E05B
S1130310089582E194E00895282F9FB7F894E82F78
S1130320FF27EF5BFE4F80818F3F81F4E0919302C2
S1130330E21771F40BC02093830204C0FF27EF5B24
S1130340FE4F20832093930220E007C025E005C0E0
S1130350809183028F3F91F7EECF892F99278FBF2A
S1130360822F99270895FC0182819927582F4427C9
S113037081819927482B592BCA01892F9927869562
S11303808695837090708230910559F08330910581
S113039059F0892B19F420E030E008C02CE93FEF34
S11303A005C022E030E002C028E030E0CA0184E069
S11303B0989F812D992711248230910559F083301B
S11303C0910559F0892B19F480E090E008C08CE97C
S11303D09FEF05C082E090E002C088E090E0280F23
S11303E0391F2A5F3F4FCF01820F931F0895282F93
S11303F09FB7F894662349F0E82FFF27E054FE4F97
S11304008081882311F021E006C0E22FFF27E05409
S1130410FE4F608320E0892F99278FBF822F992771
S11304200895E82F8FB7F894282F332790E0FF27FB
S1130430E054FE4F8081861709F491E02FBF892F85
S113044099270895882311F06E9A08956E98089557
S1130450882311F06F9A08956F98089580E00E94A0
S11304602202BA9ABB98B99AB89A6C9A80E00E9410
S113047028026B986A9881E00E942202709A8DB1DA
S11304808C7F8DB908951F93182F81E00E9422025A
S11304901FB9779BFECF8FB199271F9108958F9233
S11304A09F92AF92BF92CF92DF92EF92FF920F93FF
S11304B01F93CF93DF938FB7F8949927C0908E0240
S11304C0D0908F028090B5019090B601C0919701B1
S11304D0D09198012091220130912301EAE0AE2EBF
S11304E0B12CAC0EBD1E2A153B0508F459018FBF73
S11304F07401EC0EFD1E86010C0F1D1F14C0C114E7
S1130500D10419F0F801808101C080E00E94430207
S11305108114910411F0F701808321960894E11C61
S1130520F11C0F5F1F4FC5010197C817D90738F396
S113053081E00E9428029FB7F894C114D10431F0DD
S1130540CC0EDD1EF60180818FB901C01FB8D09397
S11305509801C0939701892F99278FBF80E090E07D
S1130560DF91CF911F910F91FF90EF90DF90CF908B
S1130570BF90AF909F908F9008952FB7F894332732
S1130580509323014093220190938F0280938E0213
S11305907093B6016093B50110929801109297017F
S11305A02FBF452B29F08FB10E944F029927089540
S11305B087E00E948C0180E090E008958FB7F89462
S11305C099271092C2018FBF0895CF92DF92EF92C4
S11305D0FF920F931F93CF93DF937C0100910D0142
S11305E0C02EDD248AE190E0C89EE001C99ED00DB2
S11305F0D89ED00D1124C65FDD4F188111FF0FC0A6
S11306000E948201E816F90651F41460188300234D
S113061021F4F2E1EF2EF12C02C0EE24FF248AE152
S113062090E0C89EF001C99EF00DD89EF00D1124F3
S1130630ED5FFD4FF586E48617861686DF91CF9130
S11306401F910F91FF90EF90DF90CF900895E0EB12
S1130650F0E06927660FF11DE60FF11DC895982F8C
S1130660802D3196C89590250895982F4FB7F8940A
S1130670552722B3277D22BB80E097FD939A959A54
S11306808299806822BB96FD939A959A8299806498
S113069022BB95FD939A959A8299806222BB94FD20
S11306A0939A959A8299806122BB93FD939A959A25
S11306B08299886022BB92FD939A959A829984606C
S11306C022BB91FD939A959A8299826022BB90FDF8
S11306D0939A959A829981604FBF992708957FB71D
S11306E0F89462B7209125013091260140912701A9
S11306F05091280106B601FE0FC081B792B7280FAA
S1130700311D411D511D2F5F3F4F4F4F5F4F290F2B
S1130710311D411D511D04C0260F311D411D511DA8
S1130720872F99278FBFCA01B9010895DF92EF92ED
S1130730FF920F931F938FB7F894282F3327D22E4D
S113074091B782B746B7981711F041FF02C02FBF87
S11307506AC0809196018823E1F10E946F03E090C2
S1130760BC01F090BD010091BE011091BF01209128
S11307703B0130913C0140913D0150913E016E1985
S11307807F09800B910B621773078407950720F08C
S11307901092960171E01EC02E0D3F1D401F511F87
S11307A08091250190912601A0912701B091280103
S11307B0281B390B4A0B5B0B273E310541055105BC
S11307C040F4822F223010F070E005C070E082E027
S11307D002C070E086EE682F615000B601FCFDCFC8
S11307E082B7681709F46F5F2091250130912601C3
S11307F04091270150912801DA01C9010196A11DF8
S1130800B11D860F911DA11DB11D82179307A40769
S1130810B50710F4622F609561BFDFBE772319F02E
S11308208AE00E948C011F910F91FF90EF90DF905E
S11308300895AFB7F894BB27E1E0E0939601609385
S1130840BC017093BD018093BE019093BF012093BE
S11308503B0130933C0140933D0150933E01AFBFB7
S11308600E949603089580E880933F0110926501E9
S113087010928602109282021092600108951F93D2
S1130880CF93DF93182F8FB7F894C82FDD2760E03C
S113089080E00E941102882321F0CFBF80E090E025
S11308A005C0CFBF812F0E9443029927DF91CF91CA
S11308B01F910895CF93DF93FC0115A6DC019E964A
S11308C0ED011B821A82198280E886A7DF91CF91FD
S11308D008952F923F924F925F926F927F928F92E0
S11308E09F92AF92BF92CF92DF92EF92FF920F93BB
S11308F01F93CF93DF93CDB7DEB728970FB6F89445
S1130900DEBF0FBECDBF20906D0130906E014090D0
S11309106F01509070016624772488241EE4A12E70
S1130920B3E8BB2ECC24DD24EE24FF2400E010E049
S1130930222D332D442D552D662D772D882D90E0B5
S11309400E94932729833A834B835C836D837E8340
S11309508F839887822E932EA42EB52E24013501E1
S113096000E20E949128A22EB32EC42ED52EC301DC
S1130970B20196958795779567956A0D7B1D8C1DB9
S11309809D1D97FF05C09F776F5F7F4F8F4F9F4FD0
S113099060936D0170936E0180936F019093700169
S11309A028960FB6F894DEBF0FBECDBFDF91CF916E
S11309B01F910F91FF90EF90DF90CF90BF90AF9079
S11309C09F908F907F906F905F904F903F902F906B
S11309D008958FB7F8946091990170919A012CB59C
S11309E03DB506B602FE04C06F5F7F4F2CB53DB522
S11309F099278FBF88279927CB0177276627442714
S1130A005527622B732B842B952B0895EF92FF921D
S1130A100F931F930E94E9047B018C0120918601AE
S1130A2030918701409188015091890180917F0123
S1130A3090918001A0918101B0918201820F931F56
S1130A40A41FB51FE216F3060407150730F082173A
S1130A509307A407B50758F005C082179307A407A6
S1130A60B507E0F5E816F9060A071B07B8F59C0177
S1130A70AD012E193F09400B510B213060E83607B8
S1130A8060E0460760E0560768F180E090E8A0E087
S1130A90B0E0E80EF91E0A1F1B1FE0928601F092D7
S1130AA08701009388011093890180E090E8AFEFFB
S1130AB0BFEFE80EF91E0A1F1B1F205030484040AC
S1130AC0504020937F0130938001409381015093E3
S1130AD0820120E030E840E050E014C020E030E043
S1130AE040E050E08093860190938701A0938801B1
S1130AF0B093890110927F011092800110928101BC
S1130B0010928201A901B7012CB53DB5C9018E1916
S1130B109F0903968417950720F0B9016D5F7F4FF5
S1130B2002C0640F751F6115710511F461E070E076
S1130B30615070407BBD6ABD80E186BF87B780612C
S1130B4087BF1F910F91FF90EF9008950F931F930C
S1130B500FB7F894112760938601709387018093EF
S1130B6088019093890120937F0130938001409301
S1130B708101509382010E9406050FBF1F910F91BE
S1130B80089597B79F7D97BF90E296BF882319F089
S1130B908EB5806402C08EB58F7B8EBD87B78062B0
S1130BA087BF80E090E00895AF92BF92CF92DF922A
S1130BB0EF92FF920F931F93CF93DF93CDB7DEB7DE
S1130BC028970FB6F894DEBF0FBECDBF20E070E0CB
S1130BD0E0910001F091010132E14DE65CE46FE443
S1130BE0809101019E2F28960FB6F894DEBF0FBEA8
S1130BF0CDBFDF91CF911F910F91FF90EF90DF90C8
S1130C00CF90BF90AF9008951F920F920FB60F929E
S1130C1011248F9383B783BF00B600FCFDCF8F915F
S1130C200F900FBE0F901F90189578941F920F92FB
S1130C300FB60F9211240F900FBE0F901F901895AE
S1130C4078941F920F920FB60F9211240F900FBE3B
S1130C500F901F90189578941F920F920FB60F92D1
S1130C6011242F933F938F939F932FB7F894332797
S1130C708091990190919A01019690939A018093A1
S1130C8099012FBF9F918F913F912F910F900FBE8C
S1130C900F901F9018951F920F920FB60F92112468
S1130CA00F900FBE0F901F9018951F920F920FB6C2
S1130CB00F9211240F900FBE0F901F9018951F9242
S1130CC00F920FB60F9211240F900FBE0F901F902A
S1130CD018951F920F920FB60F9211240F900FBE0A
S1130CE00F901F9018951F920F920FB60F92112418
S1130CF00F900FBE0F901F9018951F920F920FB672
S1130D000F9211240F900FBE0F901F9018951F92F1
S1130D100F920FB60F9211240F900FBE0F901F90D9
S1130D2018951F920F920FB60F9211242F933F9391
S1130D304F935F936F937F938F939F93AF93BF93DF
S1130D40EF93FF9383B783BF00B600FCFDCF81B759
S1130D5099270196AA27BB272091250130912601C6
S1130D604091270150912801280F391F4A1F5B1F0A
S1130D7020932501309326014093270150932801A5
S1130D8078940E949603FF91EF91BF91AF919F9148
S1130D908F917F916F915F914F913F912F910F9020
S1130DA00FBE0F901F9018950F931F93CF93DF934F
S1130DB0182F8FB7F894C82FDD270C2F61E080E03F
S1130DC00E94F701882321F0CFBF85E090E024C082
S1130DD0809106018823A1F480911701823081F467
S1130DE009C082E080931701109206010E942E022E
S1130DF0B89AC0981093030180E00FBF99270CC0E4
S1130E0080911701882369F38FB7F894992710927A
S1130E10C0018FBF81E0F1CFDF91CF911F910F917E
S1130E200895EF92FF920F931F93A82F78018901E1
S1130E30762F7695272F33278AE190E0F901E89FF2
S1130E409001E99F300DF89F300D1124F901E65F00
S1130E50FD4F6170660F80818D7F862B8083F90141
S1130E60ED5FFD4F8081882319F085E090E056C046
S1130E70A083E382F482058316835283418377231C
S1130E8009F044C08FB7F894282F3327922F80910C
S1130E901F01882311F581E080931F0110921D0228
S1130EA02FBF8FB7F894082F1127902F809110012E
S1130EB0813059F580911F01813021F481E10E9434
S1130EC08C0109C0823009F580911D0280931001C4
S1130ED083E080931F010FBF19C080911D028823F6
S1130EE011F42FBF13C0809189028F3F71F4E091F8
S1130EF00F01EE2351F00DC010920E0104C0FF2724
S1130F00E757FD4F108210920F019FBF80E090E0E1
S1130F1005C080910E018F3F91F7EECF1F910F9185
S1130F20FF90EF9008950F931F93CF93DF93EB01FE
S1130F30D898809102018823D9F481E0809302013A
S1130F402093C501A6ECB1E0FB0184E301900D926E
S1130F508150E1F705E310E020E030E045EC51E09A
S1130F6061E082E00E941107882311F010920201CF
S1130F70CE01DF91CF911F910F9108950F931F938D
S1130F80FB01D99A4423D1F481E0663C7807B1F49B
S1130F908CE0DB01982F1D929A95E9F7B896DF0152
S1130FA01D928A95E9F7B99705E310E020E030E057
S1130FB0AF0161E084E00E9411071EC00E946F032C
S1130FC06093AC017093AD018093AE019093AF0137
S1130FD089E190E0A0E0B0E08093B0019093B1018A
S1130FE0A093B201B093B3018091B4018360809364
S1130FF0B4018BE00E948C011F910F910895CF9250
S1131000DF92EF92FF920F931F9380931E016093E0
S11310102102C901880F892F881F990B919580930C
S11310202202220F812F9927282B20932302009339
S11310302402D092B801C092B701F0928501E092E7
S1131040840140937E0180E10E948C011F910F91E5
S1131050FF90EF90DF90CF900895BF92CF92DF92F0
S1131060EF92FF920F931F93B82E8091290188234A
S113107039F085E080931E0180E10E948C011DC03F
S11310808B2D9927FC01EE0FFF1FE80FF91FEA5A79
S1131090FE4F20813181BB2011F461E601C060E67E
S11310A071E0C72ED12CEE24FF2400E010E040E0D4
S11310B08AE00E94FF07B092A1011F910F91FF9057
S11310C0EF90DF90CF90BF9008950F931F93182F48
S11310D00FB7F89461E080E00E94F701882371F56E
S11310E010930301809106018823A9F580911701CB
S11310F0823089F586E00CC00E942E02809117018F
S1131100882349F481E0809317011092610188E0FB
S11311100E948C012AC0809183018F3F31F5E091B8
S11311200501EE2311F11CC01092040104C0FF2735
S1131130ED57FE4F10821092050117C081E090E038
S113114002C0880F991F1A95E2F720911601282BE7
S1131150209316010AC0809117018823E1F6CCCFB1
S1131160809104018F3F19F7DFCF802F99278FBF1C
S113117080E090E01F910F9108951F9383E00E94F7
S1131180D4069927182F882319F083E00E94650854
S1131190812F99271F910895EF92FF920F931F9328
S11311A0CF93DF93182F7B01042F8FB7F894C82FA8
S11311B0DD2760E080E00E941102882321F0CFBF88
S11311C080E090E014C0CFBF1064812F99279093E2
S11311D08F0180938E010E944302182F402F5527C0
S11311E0B70180E090E00E94BD02812F9927DF9132
S11311F0CF911F910F91FF90EF900895C098609147
S113120020017091210141E08FE30E94CC080895F0
S113121082E090E0909354018093530181E08093A5
S1131220650120E030E080910301843011F421E075
S113123030E0232B29F484E00E94D406882319F497
S11312400E94FE08089584E00E94650808951F9294
S11312500F920FB60F9211242F933F934F935F93E6
S11312606F937F938F939F93AF93BF93EF93FF936A
S11312708091530190915401019749F482E090E0E8
S113128090935401809353010E94080905C08091F2
S113129060018F5F80936001FF91EF91BF91AF91E7
S11312A09F918F917F916F915F914F913F912F917A
S11312B00F900FBE0F901F9018951F9380911601E9
S11312C0882309F04BC0109103011F3F09F046C069
S11312D060E00E941102882309F440C081E08093F9
S11312E01F02809140018823E1F110921F0285E0E2
S11312F090E045C0923069F5C09A8091040120E0E5
S113130030E08F3F11F421E030E0232BE9F4109317
S113131006018F3F19F42FEF30E00DC0282F33273B
S1131320F901ED57FE4F8081809304018F3F11F442
S11313301093050110832093610181E080931701CC
S113134088E00E948C0105C01093060110921701D9
S113135011C080911701882369F00FC081E090E0EB
S11313600EC08091060190911701882319F29230E2
S113137021F0EFCF80E00E94220280E090E01F91F4
S113138008951F93CF93DF939FB7F894C92FDD2758
S11313901C2F90910301981721F0CFBF81E090E0BA
S11313A03AC08FEF80930301309116013323F1F497
S11313B08FB7F89499271092C0018FBF0E945D09DE
S11313C0CFBF11C02093030181E090E002C0880FD9
S11313D0991F4A95E2F7809538233093160186E0E9
S11313E00E948C011FBF80E090E015C080E065E0A2
S11313F0E32FFF270E943329292F492F5527CF0197
S1131400042E02C0959587950A94E2F780FDDACF01
S1131410822F8F5FEFCFDF91CF911F9108951F939C
S1131420CF93DF938FB7F894C82FDD271C2F8091BB
S1131430530190915401892B29F484E00E94C1093D
S1131440CFBF1EC01092650180916001882311F006
S1131450B79904C00E9908C0882319F0815080936D
S113146060010E9408090BC081E090E09093540150
S1131470809353011092600184E00E94C1091FBF50
S1131480DF91CF911F9108950E943304C09AC098B0
S113149088E00E943F0488E00E943F04C09A84E0F0
S11314A00E94C1090E940F0A0895FF920F931F938F
S11314B0CF93DF93F82E8B018FB7F894C82FDD27D5
S11314C060E080E00E941102882321F0CFBF80E019
S11314D090E00CC0CFBF8F2D0E944302812F99272B
S11314E00E944302802F0E9443029927DF91CF91EB
S11314F01F910F91FF9008951F931FB7F894809147
S11315005F01882319F460E070E009C060E0809115
S11315108D02882309F461E081E0682777278091B0
S11315206A01882319F480E090E00AC090E0809179
S1131530FA01882309F491E081E09827892F9927FB
S1131540762F6627770F770F770F24E0880F991F80
S11315502A95E1F7826E9262682B792B81E10E94D1
S1131560550A812F99278FBF1F9108958FB7F8943B
S1131570992760911E028FBF85E0689FB0011124F6
S1131580625D7E4F706488E10E94550A0895CF928F
S1131590DF92EF92FF920F931F938091290188238A
S11315A039F085E080931E0180E10E948C0129C0FE
S11315B04091A201842F9927FC01EE0FFF1FE80F31
S11315C0F91FDF01AA5ABE4F2D913C91E85AFE4FF4
S11315D0808182FF06C0442311F068E807C069E8EF
S11315E005C0442311F063E801C066E841E0C42E5D
S11315F0D12CEE24FF2400E010E040E089E00E94BA
S1131600FF071F910F91FF90EF90DF90CF90089507
S1131610CF92DF92EF92FF920F931F93CF93DF93BA
S11316208C01F62E6A01E22E8FB7F894C82FDD27BD
S113163060E080E00E941102882321F0CFBF80E0A7
S113164090E01EC0CFBF0F0D111D802F80680E9437
S11316504302F82E16950795802F807C0E94430242
S11316600E2D0AC0EE2DFF27E01BF109EC0DFD1D28
S113167080810E94430201500023A1F78F2D9927F6
S1131680DF91CF911F910F91FF90EF90DF90CF905A
S11316900895CF93DF93CDB7DEB72C970FB6F894A8
S11316A0DEBF0FBECDBF8FB7F894282FAE014F5FBA
S11316B05F4FDA01EBEFF1E088E001900D92815089
S11316C0E1F780916601909167018987892F9927B5
S11316D08A8780918A0190918B018B87892F992722
S11316E08C872FBF2CE060E080E691E00E94080B1D
S11316F02C960FB6F894DEBF0FBECDBFDF91CF910D
S11317000895EF92FF921F93CF93DF93E0906B01C4
S1131710F0906C01F70182A59927182F882309F40A
S113172011E1C09880915D01811749F0612F7727FD
S11317306F717070606E706885E10E94550A109335
S11317405D01F70110818FB7F894C82FDD2760E0A1
S113175080E00E941102882311F0CFBF12C0CFBFD6
S11317608EE390E090938F0180938E018EE30E942C
S113177043021150412F552760E070E0C7010E94D9
S1131780BD02DF91CF911F91FF90EF9008950F93C9
S11317901F93CF93DF93EC010FB7F89411270E94A6
S11317A0B301FC018FE380830FBF10928B02109270
S11317B08A0261E082E00E94F701882319F085E043
S11317C090E072C0809120028F5F8093200281504C
S11317D08B838FB7F894082F112762E081E00E9471
S11317E01102882329F40FBF0E94DE0281E05BC04E
S11317F08FB7F894992724E02093C1018FBFD09329
S11318009501C09394010FBFFE0131968181298116
S11318109927982F88273327822B932B80729C7CBF
S11318208983892F992781832981982F88273327B2
S11318302164822B932B8983892F992781831CA66A
S113184018A619A619AA18AA1FA680E88EA761E0EF
S11318506093C40140919401509195018FB7F8941D
S1131860282F332780911801909119018830910510
S113187011F0019711F02FBF15C082E090E0909312
S11318801901809318016093940250936C01409362
S11318906B01109224012FBF0E94BD08882311F40C
S11318A00E94810B80E09927DF91CF911F910F91C6
S11318B00895CF93DF93DA01422F2D3118F082E09F
S11318C090E05EC0ED018B876E83872F99278F830D
S11318D02FB7F894332780916601909167012FBF49
S11318E0FD018483892F992785832FB7F8943327A3
S11318F080910701909108012FBF8887892F99272C
S113190089873196818129819927982F88273327C0
S113191020643868822B932B8983892F99278183AC
S1131920435F4C934D5080910A01882359F01092E3
S11319300A01642FCD010E94C70B9927282F882301
S1131940A9F417C0842F992790939301809392014F
S1131950B0931D01A0931C018CE00E948C01809126
S11319600A01882349F489E090E00AC08FEF80934C
S11319700A01822F992704C01092710180E090E03F
S1131980DF91CF910895AF92BF92CF92DF92EF9201
S1131990FF920F931F935B016C016091AB0161FF98
S11319A020C02091A3013091A4014091A501509140
S11319B0A601E090A701F090A8010091A90110915F
S11319C0AA01D601C501821B930BA40BB50B8E157E
S11319D09F05A007B10728F0E3EAF1E0A0E0B0E03A
S11319E021C0ECEAF1E06091B40161FF3EC02091B6
S11319F0AC013091AD014091AE015091AF01E09046
S1131A00B001F090B1010091B2011091B301A21A9A
S1131A10B30AC40AD50AAE14BF04C006D10628F11D
S1131A20A1E0B0E060FF04C080858D7F808708C09E
S1131A302E0D3F1D401F511F20833183428353834A
S1131A40A13099F42091C50133276091CD01772706
S1131A50762F66278091CC019927682B792B46EC49
S1131A6051E08091D1010E94590C8BE00E948C01BD
S1131A701F910F91FF90EF90DF90CF90BF90AF90A8
S1131A8008959F92AF92BF92CF92DF92EF92FF920E
S1131A900F931F93CF93DF93982E80910D01082FFE
S1131AA011272AE130E0029FF001039FF00D129FFD
S1131AB0F00D1124ED5FFD4FF080A0909D01B090DA
S1131AC09E01C0909F01D090A001C181D2819FEF5F
S1131AD090930D0110828823C9F58FB7F894E82EEE
S1131AE080911F01833089F580911001882369F565
S1131AF080910E0120E030E08F3F11F421E030E0CE
S1131B00232BF1F48F3F19F42FEF30E00DC0282F71
S1131B103327F901E757FD4F808180930E018F3FF2
S1131B2011F490930F01908320931D028FEF809303
S1131B30100181E080931F0181E10E948C0105C0A6
S1131B4081E08093100110921F01EFBE8AE190E0C2
S1131B50089FF001099FF00D189FF00D1124E65F16
S1131B60FD4FE081E695E170000F111FE02B82E04C
S1131B70F81671F084E0F81689F081E0F816D1F5D2
S1131B80E130C1F5992011F410920201DA9A32C0C1
S1131B90E13081F510920201D89A2CC0E13051F560
S1131BA085E3A816B104C104D104C9F481E0C53C9D
S1131BB0D807A9F421962091C50133276091CD015E
S1131BC07727762F66278091CC019927682B792B6C
S1131BD0AE018091D1010E94590CD9980BC000E04C
S1131BE010E020E030E040E050E061E081E00E945D
S1131BF01107DA98DF91CF911F910F91FF90EF9029
S1131C00DF90CF90BF90AF909F9008951F93182FAF
S1131C1081E090E0909319018093180110924001A3
S1131C200E945D098FB7F8949927109312018FBF12
S1131C3082E00E948C011F9108950F931F932091BD
S1131C40390130913A014091B9015091BA012417F8
S1131C50350721F481E00E94410D24C080910D01DB
S1131C60882319F482E190E002C080E090E0281714
S1131C70390729F450933A014093390106C02150A1
S1131C80304030933A0120933901609139017091C9
S1131C903A010AE010E022E731E04EEF50E081E043
S1131CA00E94AD141F910F910895EF92FF920F932C
S1131CB01F93CF93DF93982FDB01809164014093AE
S1131CC06401843009F4B1C4853050F4823009F4DD
S1131CD0D9C0833008F0AFC3813009F0B0C40AC062
S1131CE0863008F4ACC4883008F4DAC38A3008F0CB
S1131CF0A6C490C440910D014F3F09F4A0C4992398
S1131D0009F099C480915E018230C1F0833038F4C7
S1131D10882309F4B4C0813009F091C40AC0843026
S1131D2009F487C0843008F471C0853009F087C491
S1131D3090C06091B9017091BA015EC08091720146
S1131D409927982F8827209173013327822B932B6F
S1131D508655924409F083C1242F33278AE190E009
S1131D60289FF001299FF00D389FF00D1124ED5F9D
S1131D70FD4FE0907601FF2400271127102F0F2D2F
S1131D80FE2CEE2420917401332744275527522F2B
S1131D90442733272227809175019927AA27BB2737
S1131DA0DC0199278827282B392B4A2B5B2B809120
S1131DB077019927AA27BB27282B392B4A2B5B2B82
S1131DC0E22AF32A042B152B80859185A285B385FD
S1131DD08E159F05A007B10708F041C16091390134
S1131DE070913A018091B9019091BA01861B970BC9
S1131DF096958795680F791F06E011E020E030E0A2
S1131E0040E050E082E00E94AD1419C48091720158
S1131E109927982F8827209173013327822B932B9E
S1131E208655924409F02BC18091790182FD1EC030
S1131E3026C1242F33278AE190E0289FF001299FAF
S1131E40F00D389FF00D1124ED5FFD4F6489758905
S1131E50D3CF809172019927982F882720917301FD
S1131E603327822B932B8655924429F460913901B0
S1131E7070913A01C1CF80E00E94410DE0C30E94FD
S1131E80ED17DDC360910D016F3F09F4D8C39923A9
S1131E9009F0D1C380915E01833009F4E3C084303A
S1131EA030F4813071F0823009F0C9C377C08530D5
S1131EB009F488C2853008F4F2C1863009F0BFC342
S1131EC063C2809172019927982F8827209173010A
S1131ED03327822B932B8655924409F04AC0809174
S1131EE07A019927982F882720917B013327822B09
S1131EF0932BA817B907E9F5262F33278AE190E039
S1131F00289FF001299FF00D389FF00D1124ED5FFB
S1131F10FD4FE0907601FF2400271127102F0F2D8D
S1131F20FE2CEE2420917401332744275527522F89
S1131F30442733272227809175019927AA27BB2795
S1131F40DC0199278827282B392B4A2B5B2B80917E
S1131F5077019927AA27BB27282B392B4A2B5B2BE0
S1131F60E22AF32A042B152BE086F18602871387D5
S1131F7011C0262F33278AE190E0289FF001299F82
S1131F80F00D389FF00D1124ED5FFD4F1086118682
S1131F901286138682E080935E015EC080917A018E
S1131FA09927982F882720917B013327822B932B05
S1131FB0A817B90709F053C0262F33278AE190E008
S1131FC0289FF001299FF00D389FF00D1124ED5F3B
S1131FD0FD4FE0907601FF2400271127102F0F2DCD
S1131FE0FE2CEE2420917401332744275527522FC9
S1131FF0442733272227809175019927AA27BB27D5
S1132000DC0199278827282B392B4A2B5B2B8091BD
S113201077019927AA27BB27282B392B4A2B5B2B1F
S1132020E22AF32A042B152BE086F1860287138714
S11320302091390130913A018091B9019091BA010E
S1132040821B930B969587952F5F3F4F820F931FAB
S113205090933A01809339010E94FE14F0C20E94C9
S11320602A15EDC280917A019927982F882720910B
S11320707B013327822B932BA817B90719F00E94F1
S11320801D0EDDC2262F33278AE190E0A901489F67
S11320909001499F300D589F300D1124F901E65FDE
S11320A0FD4F8081877F808380917901C0913901C0
S11320B0D0913A0180FF85C08091B9019091BA0115
S11320C0C817D907C1F5E0907601FF24002711272E
S11320D0102F0F2DFE2CEE2420917401332744275A
S11320E05527522F4427332722278091750199279A
S11320F0AA27BB27DC0199278827282B392B4A2BB1
S11321005B2B809177019927AA27BB27282B392B92
S11321104A2B5B2BE22AF32A042B152BE114F1043E
S11321200105110541F4662319F482E190E005C02C
S113213080E090E002C0CE0101960E94E502809109
S11321400D0199272AE130E0829FF001839FF00D71
S1132150929FF00D1124ED5FFD4F80917601992738
S1132160AA27BB27EE24F82E092F1A2F20917401D9
S1132170332744275527522F44273327222780917A
S113218075019927AA27BB27DC0199278827282BC3
S1132190392B4A2B5B2B809177019927AA27BB27E0
S11321A0282B392B4A2B5B2BE22AF32A042B152BE1
S11321B08EEF90E0A0E0B0E0E80EF91E0A1F1B1FAE
S11321C03AC0F901ED5FFD4FD587C487609178016E
S11321D0862F992797878687E0907601FF2400272A
S11321E01127102F0F2DFE2CEE242091740133277C
S11321F044275527522F44273327222780917501DE
S11322009927AA27BB27DC0199278827282B392B54
S11322104A2B5B2B809177019927AA27BB27282B70
S1132220392B4A2B5B2BE22AF32A042B152BE60EBF
S1132230F11C011D111DE086F18602871387809130
S11322400D01282F33278AE190E0289FF001299F70
S1132250F00D389FF00D1124E65FFD4F8091790158
S11322609927969587958170880F880F90819B7F19
S1132270982B908392FF02C091FFDDC18AE190E028
S1132280289FF001299FF00D389FF00D1124E65F7F
S1132290FD4F8081816080830E946019D0C180914C
S11322A072019927982F8827209173013327822B55
S11322B0932B8655924409F0DECD80917A019927BB
S11322C0982F882720917B013327822B932BA817E3
S11322D0B90709F0D0CD7727E0907601FF240027D5
S11322E01127102F0F2DFE2CEE242091740133277B
S11322F044275527522F44273327222780917501DD
S11323009927AA27BB27DC0199278827282B392B53
S11323104A2B5B2B809177019927AA27BB27282B6F
S1132320392B4A2B5B2BE22AF32A042B152B8AE147
S113233090E0689FF001699FF00D789FF00D1124E3
S1132340EF01CD5FDD4F2E893F89442755278889CA
S11323509989AA89BB89821B930BA40BB50BE81638
S1132360F9060A071B0709F086CDE65FFD4F808159
S1132370886080838091790180FF7DCD8091780190
S11323809927998F888F77CDC2E7D1E06991CD01E4
S11323900E942703DC0141E0CA37D407B9F78093D0
S11323A07B01892F992780937A016091390170917B
S11323B03A010AE010E09E01285030404EEF50E010
S11323C083E021CD262F33278AE190E0289FF00176
S11323D0299FF00D389FF00D1124E65FFD4F808199
S11323E090917A0120917B0183FD15C0892F992753
S11323F0982F88273327822B932BA817B90741F4EA
S11324008091790182FF04C080917801992710C0DE
S11324100E945C1714C1892F9927982F8827332786
S1132420822B932BA817B90709F025CD80E090E003
S11324300E94DB1804C120910D012F3F09F4FFC055
S1132440992309F0F8C080915E018823A1F08630B9
S113245009F0F5C010925E0180917901C0913901B3
S1132460D0913A0180FF02C066E001C068E0CE016D
S11324700E948114E4C033278AE190E0289FF00190
S1132480299FF00D389FF00D1124ED5FFD4F8685D7
S113249097858E3F910509F0EECC0E94F015CFC0D0
S11324A040910D014F3F09F4CAC0992309F0C3C0FC
S11324B0242F33278AE190E0289FF001299FF00D13
S11324C0389FF00D1124EF01CD5FDD4F88818230FC
S11324D079F1833009F466C0813009F0B0C08EEF21
S11324E090E0A0E0B0E088879987AA87BB87E65F81
S11324F0FD4F80818B7F8083442319F482E190E037
S113250002C080E090E00E94E50280910D019927CD
S11325102AE130E0829FF001839FF00D929FF00D3D
S11325201124E65FFD4F8081877F81608083A3CC87
S1132530809176019927AA27BB27EE24F82E092F2C
S11325401A2F20917401332744275527522F4427EB
S113255033272227809175019927AA27BB27DC01FD
S113256099278827282B392B4A2B5B2B80917701BD
S11325709927AA27BB27282B392B4A2B5B2BE22A26
S1132580F32A042B152B8EEF90E0A0E0B0E0E80EC8
S1132590F91E0A1F1B1FE886F9860A871B870E94FB
S11325A0E1164DC0809176019927AA27BB27EE2416
S11325B0F82E092F1A2F2091740133274427552709
S11325C0522F442733272227809175019927AA2760
S11325D0BB27DC0199278827282B392B4A2B5B2B17
S11325E0809177019927AA27BB27282B392B4A2BBF
S11325F05B2BE22AF32A042B152B8EEF90E0A0E04C
S1132600B0E0E80EF91E0A1F1B1FE886F9860A8748
S11326101B8731CC80910D018F3F89F0992359F4A8
S1132620109279010E943F150AC080910D018F3FDD
S113263031F0992311F081E01FCC0E947B16DF91C9
S1132640CF911F910F91FF90EF900895CF92DF9259
S1132650EF92FF920F931F93409164015091A20156
S11326602091680130916901652F7727FB01EE0FF6
S1132670FF1FE60FF71FDF01AA5ABE4F8D919C91F1
S113268011972817390709F0F8C0453009F453C0E9
S1132690463070F4423009F4B2C0433018F441308B
S11326A069F48EC0433009F4C9C0443039F40BC016
S11326B0483008F453C04A3008F45BC040936401C6
S11326C05093A20117C1409364015093A2018091D9
S11326D087029091880281309105E1F08130910563
S11326E020F0029709F006C110C0809129018823C7
S11326F009F0DEC091E0C92ED12CEE24FF2400E0C5
S113270010E040E061E88BE0F3C0E85AFE4F8081BE
S113271084608083FB01EE0FFF1FE60FF71FE85A6A
S1132720FE4F80818260808340E060E070E080E062
S11327300E94550EDFC0409364015093A201E85AF1
S1132740FE4F808181FFBFC08091870290918802F3
S11327508D939C9380818D7F808322C0E85AFE4FA5
S1132760808181FFACC0869586958695837031F013
S1132770ADC0E85AFE4F808181FFA1C0483061F0AE
S1132780463051F08091580181FF0CC080915B016B
S113279081FD02C051E007C0409364015093A2013F
S11327A08DE08AC050E0852F9927FC01EE0FFF1FB2
S11327B0E80FF91FE85AFE4F8081877E808350CF4F
S11327C0409364015093A201E85AFE4F808180FD3A
S11327D06FC0C0909B01D0909C01E0907C01F09070
S11327E07D010091870210918802552311F064ED58
S11327F001C066ED20E030E042E082E079C0409321
S113280064015093A201E85AFE4F808180FD50C0BC
S1132810E0907C01F0907D01C0909B01D0909C01E0
S11328200091870210918802552311F064ED01C0D4
S113283066ED20E030E042E083E05AC0409364015A
S11328405093A201E85AFE4F808180FD31C0C090B0
S11328509B01D0909C01E0907C01F0907D0100915F
S1132860870210918802552311F064E801C067E8DB
S113287020E030E040E084E03BC0E85AFE4F808135
S113288081FF1DC08695869586958370F9F4443042
S113289019F42D933C93E4CE409364015093A20128
S11328A080912901882321F45523C1F063E517C0E1
S11328B085E080931E0180E10E948C011BC040933F
S11328C064015093A2010E94C70A14C0409364019A
S11328D05093A201852F0E942D080CC065E511E0DC
S11328E0C12ED12CEE24FF2400E010E040E088E06B
S11328F00E94FF071F910F91FF90EF90DF90CF9000
S113290008959C0160936401809156019091570150
S11329108217930719F41092A2010FC080915901F4
S113292090915A018217930721F481E08093A201C8
S113293004C08DE00E948C0108958091A201992722
S1132940FC01EE0FFF1FE80FF91FE85AFE4F8081CC
S1132950877E80830E94261308950F931F93E82F88
S11329608093640110939C0100939B0130937D013B
S113297020937C01709369016093680150938802ED
S11329804093870280915601909157016817790707
S113299019F41092A20113C08091590190915A0127
S11329A06817790721F481E08093A20108C090E0C0
S11329B08091A201882309F491E09093A2016050D0
S11329C0784098F481E00930180778F4E53051F044
S11329D081E04830580748F4400F511F4950514096
S11329E020F407C04050584020F08EE00E948C0133
S11329F002C00E9426131F910F9108950F931F93F5
S1132A008091B9019091BA016091390170913A01B4
S1132A106817790768F083E080935E010E94820161
S1132A2001979093BA018093B9010E941D0E0FC0C3
S1132A30861B970B96958795680F791F0AE010E01F
S1132A4022E731E04EEF50E081E00E94AD141F9187
S1132A500F9108952091390130913A018091B90183
S1132A609091BA01821B930B96958795280F391F75
S1132A703093BA012093B9010E94FE1408954F9235
S1132A805F926F927F928F929F92AF92BF92CF92FA
S1132A90DF92EF92FF920F931F93CF93DF93809176
S1132AA00D01682E77248AE190E0689EE001699E1A
S1132AB0D00D789ED00D1124CD5FDD4F49805A8012
S1132AC0A0909D01B0909E01C0909F01D090A00164
S1132AD08E849F84EB80FC800D811E81EA18FB08A4
S1132AE00C091D0911F480E008C00E9482012C85A4
S1132AF03D852817390721F482E00E94410D5FC00B
S1132B00C401AA27BB278E0D9F1DA01FB11F8F3F95
S1132B109105A105B10510F4870104C00EEF10E082
S1132B20081919099801442755278AE190E0689EFD
S1132B30B001699E700D789E700D1124FB01ED5F4C
S1132B40FD4F80859185A285B385820F931FA41FB5
S1132B50B51F80879187A287B38786859785800F65
S1132B60911F978786872A0D3B1D4C1D5D1D209361
S1132B709D0130939E0140939F015093A0018114C5
S1132B80910449F4FB01E65FFD4F808182FF03C09D
S1132B9081E080932A014A0C5B1C8AE190E0689EE4
S1132BA0F001699EF00D789EF00D1124ED5FFD4F4C
S1132BB0648575859201A40183E00E94AD14DF91C0
S1132BC0CF911F910F91FF90EF90DF90CF90BF9026
S1132BD0AF909F908F907F906F905F904F900895EB
S1132BE0EF92FF920F931F93CF93DF9386E080932E
S1132BF05E0180910D019927AAE1EA2EF12C8E9DA8
S1132C00B0018F9D700D9E9D700D1124FB01ED5F31
S1132C10FD4FC485D585D0933A01C09339012685EB
S1132C2037854427552780859185A285B385821BE6
S1132C30930BA40BB50B80937701292F3A2F4B2FBD
S1132C405527209376019D0144275527209375012C
S1132C508B2F9927AA27BB278093740186E580933D
S1132C60730182E480937201665F7D4FFB01808172
S1132C7082FF05C0809179018260809379010EEF13
S1132C8010E020E030E040E050E0BE0182E00E942D
S1132C90AD1480910D0199278E9DF0018F9DF00D4B
S1132CA09E9DF00D1124ED5FFD4F84859585019661
S1132CB00E94E50280910D0199278E9DA0018F9DB0
S1132CC0500D9E9D500D1124FA01ED5FFD4F24859A
S1132CD03585848995892817390731F4FA01E65F27
S1132CE0FD4F8081877F8083DF91CF911F910F916A
S1132CF0FF90EF9008950F931F93609139017091A5
S1132D003A018091B9019091BA0101976817790746
S1132D1019F585E08093790110927801CB010E9426
S1132D20E50280910D0199272AE130E0829FF001AC
S1132D30839FF00D929FF00D1124DF01A65FBD4F1C
S1132D408C918B7F8C93ED5FFD4F108611861286DC
S1132D5013860E94F01511C06F5F7F4F70933A0184
S1132D60609339016150704000E010E020E030E0F1
S1132D7040E050E084E00E94AD141F910F9108954B
S1132D8085E08093790180910D0199272AE130E053
S1132D90829FF001839FF00D929FF00D1124ED5F4F
S1132DA0FD4F46855785409378012489358984856C
S1132DB095852817390711F4518F408F0E94F0151B
S1132DC008956F927F928F929F92AF92BF92CF920B
S1132DD0DF92EF92FF920F931F93CF93DF93209193
S1132DE00D01C22FDD278AE190E0C89FF001C99F41
S1132DF0F00DD89FF00D1124ED5FFD4FA380B4803A
S1132E00C580D68060909D0170909E0180909F0146
S1132E109090A001222319F460E074E002C060E005
S1132E2070E0882799272EEF30E040E050E00E94C0
S1132E3014297B018C0110922A018AE190E09E0101
S1132E40289FE001299FD00D389FD00D1124CD5F1C
S1132E50DD4F688579858A859B856E5F70408040EB
S1132E609040A80197010E946629A618B708C808CF
S1132E70D908EA18FB080C091D096E157F0580079F
S1132E80910718F00E94C01608C08E8580937801BF
S1132E9084E0809379010E943F15DF91CF911F91C7
S1132EA00F91FF90EF90DF90CF90BF90AF909F90E5
S1132EB08F907F906F9008950F931F93CF93DF931C
S1132EC00091390110913A010F5F1F4F10933A019D
S1132ED0009339010E9482010817190769F480914F
S1132EE00D01882319F482E190E002C080E090E0B3
S1132EF090933A01809339016091390170913A01BC
S1132F0080910D0199272AE130E0829FF001839F8F
S1132F10F00D929FF00D1124DF01AD5FBD4FED0167
S1132F208C859D856817790781F5E65FFD4F808163
S1132F3083FD04C080E00E94410D30C010927901ED
S1132F40FD01268537854427552780859185A285EF
S1132F50B385821B930BA40BB50B80937701292FA8
S1132F603A2F4B2F5527209376019D01442755274F
S1132F70209375018B2F9927AA27BB27809374016F
S1132F8080E090E00E94DB1809C00AE010E022E72C
S1132F9031E04EEF50E081E00E94AD14DF91CF911B
S1132FA01F910F91089585E080935E0180910D013A
S1132FB099272AE130E0829FF001839FF00D929FD0
S1132FC0F00D1124ED5FFD4F8489958990933A01AA
S1132FD0809339010E945C1708952F923F924F927B
S1132FE05F927F928F929F92AF92BF92CF92DF9225
S1132FF0EF92FF920F931F93CF93DF93CDB7DEB77A
S113300026970FB6F894DEBF0FBECDBF80910D0199
S1133010282F33273C832B838AE190E0AC01249F43
S1133020C001259F900D349F900D1124BC016D5F4C
S11330307D4F7E836D83FB010180F281E02DFA8355
S1133040E98380909D0190909E01A0909F01B09093
S1133050A001FB0146885788608D718DE380F48060
S113306005811681E818F9080A091B0999F1DC01A0
S1133070A65FBD4F7C9073FC12C072FE05C0ED814B
S1133080FE818485958508C0F8E07F2A7C920E94A1
S113309082010197ED81FE81958B848B1FC0ED81A8
S11330A0FE81C488D58824843584C214D30411F4E1
S11330B06685778546165706A1F486010F5F1F4F74
S11330C00E9482010817190711F471FE03C0C2148B
S11330D0D30421F480E00E94410D55C00E94D3170F
S11330E052C0C201AA27BB278E0D9F1DA01FB11F6E
S11330F09B0144275527281739074A075B0710F017
S1133100870103C08B010419150998014427552729
S1133110D501C401820F931FA41FB51F80939D0185
S113312090939E01A0939F01B093A0018AE190E047
S11331306B817C81689F7001699FF00C789FF00C13
S1133140112483E092E0E80EF91EF7018089918949
S1133150A289B389820F931FA41FB51F808B918B03
S1133160A28BB38BC201800F911F978B868B298111
S11331703A81280D391D3A83298364897589A2010E
S113318081E00E94AD1426960FB6F894DEBF0FBE00
S1133190CDBFDF91CF911F910F91FF90EF90DF9002
S11331A0CF90BF90AF909F908F907F905F904F9003
S11331B03F902F900895AF92BF92CF92DF92EF92FB
S11331C0FF920F931F93CF93DF9310925E01209190
S11331D00D01622F77272AE130E0629FF001639F9F
S11331E0F00D729FF00D1124ED5FFD4FA09076015C
S11331F0BB24CC24DD24DC2CCB2CBA2CAA24E090D8
S11332007401FF24002711271E2D0027FF24EE241C
S113321020917501332744275527A90133272227F5
S1133220E22AF32A042B152B209177013327442714
S11332305527E22AF32A042B152BAE28BF28C02ACF
S1133240D12A9C0144275527A20EB31EC41ED51EA5
S1133250A08AB18AC28AD38A2091390130913A0175
S1133260358B248B978B868B8091790180FD03C0ED
S11332702EEF30E004C080917801282F33278AE1B3
S113328090E0689FF001699FF00D789FF00D112484
S1133290DF01AD5FBD4FED01398F288FE65FFD4F34
S11332A08081886080830E94ED17DF91CF911F9108
S11332B00F91FF90EF90DF90CF90BF90AF90089563
S11332C06F927F928F929F92AF92BF92CF92DF9232
S11332D0EF92FF920F931F93CF93DF9370900D01A2
S11332E0872C99248AE190E0889EF001899EF00D54
S11332F0989EF00D1124AF01465F5D4FDA012C91C9
S113330020FD23C0ED5FFD4F8081813009F412C19F
S113331081E080935E01772019F482E190E002C09D
S113332080E090E090933A01809339010E948201F9
S113333001979093BA018093B9010AE010E022E763
S113334031E04EEF50E0BC01F1C010925E01EF019C
S1133350CD5FDD4F8881833099F1843030F4813042
S113336051F0823009F0E9C028C0843089F18530F9
S113337009F0E3C030C08AE190E0889EF001899EA4
S1133380F00D989EF00D1124E65FFD4F80818E7F35
S11333908083772019F482E190E002C080E090E01D
S11333A090933A01809339010E9482019093BA016B
S11333B08093B9010E947B16C0C00E94E116BDC073
S11333C08E859F85892B09F4A4C00E94C016B5C0C0
S11333D00E94ED17B2C089819A81AA27BB276C018C
S11333E0BB24AA248B819C81AD81BE81A82AB92AE1
S11333F0CA2ADB2A277FFA012083A114B104C1045D
S1133400D10429F42EEFA22EB12CC12CD12C888505
S11334109985AA85BB858A159B05AC05BD0530F049
S1133420FEEFAF16B104C104D10410F486E072C0FB
S1133430A88AB98ACA8ADB8A92E0E92E9FEFF92E1C
S11334409FEF092F9FEF192FEA0CFB1C0C1D1D1D6C
S1133450C801B7012EEF30E040E050E00E94662939
S11334607F8B6E8B772079F0C801B7012EEF30E0A7
S113347040E050E00E94662979018A0120E030E0B2
S1133480662477240FC0C801B7012EEF30E040E076
S113349050E00E94662979018A0182E1682E712C2C
S11334A020E034E08AE190E0A401489F4001499F74
S11334B0900C589F900C1124E401CD5FDD4F4427FC
S11334C05527C801B7010E946629660D771D7D8BBB
S11334D06C8B8EEF90E0998F888F8C859D85681713
S11334E07907D9F42E853F85442755278885998502
S11334F0AA85BB85821B930BA40BB50BA816B90632
S1133500CA06DB0630F0F401E65FFD4F8081886077
S1133510808380E00E94410D10C084E080935E01AE
S11335200AE010E022E731E04EEF50E081E00E9433
S1133530AD1403C010925E011ECFDF91CF911F9195
S11335400F91FF90EF90DF90CF90BF90AF909F903E
S11335508F907F906F90089578941F920F920FB67A
S11335600F9211242F923F924F925F926F927F920B
S11335708F929F92AF92BF92CF92DF92EF92FF927F
S11335800F931F932F933F934F935F936F937F9367
S11335908F939F93AF93BF93CF93DF93EF93FF9357
S11335A0C6B5D7B58FB7F894282E0E94E9049B01BD
S11335B02C1B3D0B442755272B013C01421A530A6F
S11335C0640A750A8091180190911901853091055A
S11335D021F0069709F0E0C0BFC086E090E0909328
S11335E019018093180131E0332E30926301109257
S11335F01A0180E00E94C105E0916B01F0916C0119
S113360041AABB27A72D962D852D80ABC301AA27E0
S1133610BB2787A7872D9927AA27BB2786A7E091D1
S11336206B01F0916C0185A5882309F484C0608145
S1133630655077274F01860E971EF4012081E180A3
S11336408281A3809927AA27BB27BA2FA92F982F55
S11336508827332744275527522F442733272227E7
S1133660FF24002711278701FF24EE242E293F2958
S1133670402B512BBB24CC24DD242A293B294C2963
S11336805D29822B932BA42BB52B84199509A609AC
S1133690B7098383292F3A2F4B2F552722839D0166
S11336A04427552721838B2F9927AA27BB2780835B
S11336B0C09824E0A40180E090E00E94080BC09A26
S11336C0F4012081E1808281A3809927AA27BB2766
S11336D0BA2FA92F982F8827332744275527522FED
S11336E0442733272227FF24002711278701FF249B
S11336F0EE242E293F29402B512BBB24CC24DD243E
S11337002A293B294C295D29822B932BA42BB52BE9
S1133710840D951DA61DB71D8383292F3A2F4B2F8A
S1133720552722839D014427552721838B2F9927D1
S1133730AA27BB278083E0916B01F0916C01818102
S113374085FF02C03092400183E00E94C10987B71F
S11337508F7E87BF84997AC01092630181E00E94B2
S1133760C105E0916B01F0916C01818185FF0FC06F
S113377087E090E090931901809318010E94E90476
S113378020E031E040E050E00E94A60503C080E064
S11337900E94060E849B5AC080911A01882391F5D9
S11337A080916301882371F511E0109363010E94F5
S11337B0C10580B320918202283098F4E0918602FA
S11337C0E20FFF27E770F070EE0FFF1FEE0FFF1FF1
S11337D0E25DFD4F40825182628273822F5F2093AB
S11337E0820210931A01D0939101C093900184999D
S11337F02DC0992744E0969587954A95E1F7182FAF
S1133800117001C010E0809163018130F9F41092CD
S113381063010E94C10510921A011123B9F4809129
S1133820900190919101C81BD90B2A9778F480914B
S11338308202882319F081508093820280916B0167
S113384090916C01009711F00E945A042FBEFF91D1
S1133850EF91DF91CF91BF91AF919F918F917F9124
S11338606F915F914F913F912F911F910F91FF9015
S1133870EF90DF90CF90BF90AF909F908F907F900C
S11338806F905F904F903F902F900F900FBE0F90CE
S11338901F90189561E081E00E94F7018823E9F404
S11338A08FB7F894282F3327809113019091140136
S11338B0892B11F02FBF20C081E090E09093140178
S11338C0809313012FBFDD9A0E94E90424E130E0C4
S11338D040E050E00E94A6050FC062E081E00E9433
S11338E01102882319F089E090E0089561E081E0F5
S11338F00E941102882319F080E090E0089585E089
S113390090E00895CF92DF92EF92FF920F931F936E
S1133910CFB6F894DD240E946904DC01CB0166E48F
S113392070E00E943F294BE0E42EF12CE80EF91ED2
S1133930F0929102E09290020E94E904002711277C
S1133940A80197010E94A605CFBE1F910F91FF9079
S1133950EF90DF90CF9008951F93CF93DF938FB7AD
S1133960F894C82FDD271C2F80911801909119011C
S11339700897C9F489E00E943F0483E00E94C109CA
S1133980C09A81E090E090931901809318018FB759
S1133990F894992723E0209312018FBF82E00E94BC
S11339A08C01CFBF30C0C09880919402882311F05D
S11339B085E001C084E00E943F0483FD09C080E0EB
S11339C00E943F0483FF04C085E090E020E003C030
S11339D083E090E021E09093190180931801C09A4C
S11339E01FBF222341F01092240183E00E94C109E9
S11339F00E94821C08C00E94E90420E431E040E0F7
S1133A0050E00E94A605DF91CF911F910895EF9297
S1133A10FF920F931F93CF93DF938B0180918E01BD
S1133A2090918F0186FF40C18F7B8F3309F08EC147
S1133A30C0912001D091210158815093550180916A
S1133A405301909154018530910509F443C08630A7
S1133A50910509F48AC0029709F01FC185E090E03E
S1133A60909354018093530140913F01852F9927EE
S1133A700196242F3327281739074CF1B79906C02C
S1133A800E9904C0451B415040933F01409155019C
S1133A904A32E8F44423A1F0BE016F5F7F4F4830FF
S1133AA018F047E050E007C086E090E0909354019E
S1133AB080935301552780E090E00E94BD0246C1E7
S1133AC010926501C09A84E00E94C109E3C00E947B
S1133AD0440A3CC186E090E09093540180935301E2
S1133AE080916A01882309F439C08091FA018823FE
S1133AF0A9F5898185FF32C08F814E812FB7F89453
S1133B00332760918A0170918B012FBF9927982FD9
S1133B1088275527842B952B8617970759F08F8173
S1133B202E819927982F88273327822B932B8F5FF9
S1133B309F4FA1F489818770813081F4C09AC09825
S1133B408AE00E943F04C09AC098409155014750B2
S1133B502896BE018FE30E94CC08F8C0409155011D
S1133B60475055272896BE01A6CFC09A8091600180
S1133B70882339F484E00E94C1098091600188237C
S1133B8011F0B7990AC00E9B08C090918202992344
S1133B9021F0809155018B3038F48091200190916F
S1133BA021010E945A043DC0913001F5E091860242
S1133BB0FF27EE0FFF1FEE0FFF1FE25DFD4F208179
S1133BC0318142815381E0912001F091210121ABA7
S1133BD0BB27A52F942F832F80ABCA01AA27BB270D
S1133BE087A7252F33274427552726A780918602A8
S1133BF09927019668E070E00E9453298093860219
S1133C0080918202815080938202882351F08091B6
S1133C102001909121010E945A0410928602109270
S1133C20820280915501FE01E80FF11D808187FF1A
S1133C3031C0012B79F169816770E0912001F09125
S1133C402101623019F5A0916B01B0916C011097BC
S1133C5009F180911801909119010797D9F4ED01A8
S1133C609B8183819817B1F487B78F7E87BF90813A
S1133C7081E08CA7E90FF11D8291319688A780819C
S1133C808F7789A780E00E94060E04C0613011F48A
S1133C9089E02AC00E940F0A59C010926501C09A97
S1133CA084E00E94C10952C08E3309F04FC0C09A0B
S1133CB080911801909119010897C9F4C09889E07E
S1133CC00E943F04C09A83E00E94C10981E090E011
S1133CD090931901809318018FB7F894992723E0E2
S1133CE0209312018FBF82E00E948C012FC080912B
S1133CF09402882349F484E090E09093190180931E
S1133D0018010E94AC1C22C083E00E94C10983E018
S1133D1090E090931901809318010E946904DC01DA
S1133D20CB0166E371E00E943F295BE0E52EF12CB4
S1133D30E80EF91EF0923801E09237010E94E9047E
S1133D4000271127A80197010E94A605DF91CF91B2
S1133D501F910F91FF90EF9008951F920F920FB64D
S1133D600F9211242F933F934F935F936F937F93FD
S1133D708F939F93AF93BF93EF93FF932FB1E091F2
S1133D80B501F091B601309739F080919701909187
S1133D909801E80FF91F2083809197019091980171
S1133DA00196909398018093970180E00E942802E5
S1133DB040912201509123018091970190919801A3
S1133DC08417950718F40E944F021CC06091B50136
S1133DD07091B60180918E0290918F021092B6017B
S1133DE01092B50110928F0210928E02109223014C
S1133DF01092220110929801109297012FB120E0A5
S1133E000E94071DFF91EF91BF91AF919F918F91F8
S1133E107F916F915F914F913F912F910F900FBEC2
S1133E200F901F901895AF92BF92CF92DF92EF92AE
S1133E30FF920F931F93CF93DF93CDB7DEB7A8976D
S1133E400FB6F894DEBF0FBECDBFE82FFF27E231D7
S1133E50F10508F0D2C5EA5BFF4FEE0FFF1F059096
S1133E60F491E02D09940FB7F894112781E00E9492
S1133E70C10541E0E42EF12CF0921901E092180101
S1133E8010921A011092400110925D010FBF0FB7FA
S1133E90F89411270E943304F0925401E0925301E4
S1133EA01092650189B78F7B89BF80E488BF8AB788
S1133EB080628ABF8AB78F7E8ABF89B7806489BFD0
S1133EC00FBF8FB7F894082F112780911301909199
S1133ED01401049719F483E00E943F040FBF0FB745
S1133EE0F8941127C09A80E00E94C1090FBF8FB7D0
S1133EF0F894992722E02093C1018FBF05E310E0D5
S1133F0020E030E045EC51E061E084E00E941107DC
S1133F1074C58FB7F89499271092C10171C08FB7F7
S1133F20F8949927F09012018FBF63E081E00E941A
S1133F301102882359F10FB7F8941127109219012F
S1133F401092180187B78F7E87BF87B78F7D87BF91
S1133F5083E00E94C109C09A0FBF0FB7F8941127DC
S1133F6010925401109253010E943304C09A89B7ED
S1133F708F7B89BF0FBF1092140110921301DE983A
S1133F80DD98DE9A81E00E948C0107C08FB7F89417
S1133F90992722E02093C1018FBF009194011091D1
S1133FA095010E94DE0280918A0290918B02892BF6
S1133FB009F023C58FEF80930A014F2DB80190C3F8
S1133FC08FB7F894282F3327122F809192028823D9
S1133FD009F581E08093920280911301909114017C
S1133FE0049721F481E00E94650803C084E00E94E4
S1133FF08C011FBF02C58FB7F894992710929202C3
S11340008FBFFBC48FB7F894282F332780911501F5
S1134010882311F02FBFF1C42FBF80B3992736E056
S1134020969587953A95E1F7182F117090918C0128
S113403080918D018917D9F01917C9F484E090E0B3
S113404090931401809313018FB7F894992721E07A
S1134050209315018FBF60E070E08DE10E94550A46
S11340600E94490BC09AC09880E00E948C01109372
S11340708D0185E077C48FB7F894992710910301D7
S11340808FBF123009F465C0133030F4112359F096
S1134090113009F0B2C448C0133009F474C01430AC
S11340A009F0ABC4A0C0C0988FB7F894082F1127AB
S11340B080911301909114010297A1F583E090E09F
S11340C0909314018093130168E170E08DE10E94E4
S11340D0550A81E080938C011092150180B39927D1
S11340E026E0969587952A95E1F7817090708093E4
S11340F08D0185E00E948C0181E00E943F046FE7FE
S113410072E08CE10E94550A0E94B60A0E947C0A61
S113411066E57AE287E10E94550A61EF70E885E17D
S11341200E94550A0FBF69C4C09886E00E943F04EC
S11341300E94B60A0E947C0A0E94490BC09AC09849
S113414083E00E943F04C09A81E00E94C10984E098
S113415009C4C0988FB7F894082F112760E080E055
S11341600E941102882311F00FBF0AC00FBF83E51C
S11341700E94430280E00E94430280E00E944302C6
S1134180C09A82E02DC08FB7F89499272091180126
S11341908FBF243039F0283041F0223001F50E94DD
S11341A0810B2BC40E94AC1C28C4C09889E00E94D7
S11341B03F04C09A83E00E94C1098FB7F8949927FD
S11341C021E030E030931901209318018FBF8FB79D
S11341D0F8949927109312018FBF82E0C3C383E040
S11341E00E94C1090AC40E94FE0807C40FB7F894CC
S11341F0112740912201509123016091B5017091E2
S1134200B60180918E0290918F021092B6011092A5
S1134210B50110928F0210928E0210922301109217
S11342202201109298011092970120E00E94071D2C
S113423079CF2FB7F89433278091610180930601D9
S113424082E0809317012FBF80910601882309F033
S1134250D4C3B89AC09886E085C3A0912001B091D8
S11342602101DC909D012D0D311DF9018081881FF4
S11342708827881FFD0183A7F90180818F77FD01BD
S113428081A721503040F9018081FD0180A7A091D0
S11342902001B0912101FD0132818FB7F894992753
S11342A020915F018FBF222309F490C0832F9927A7
S11342B09695879596958795837090708230910531
S11342C041F5878146812FB7F894332760918A019D
S11342D070918B012FBF9927982F88275527842BFE
S11342E0952B8617970719F481E090E06CC0FD01C7
S11342F08781268140E050E09927982F882733272B
S1134300822B932B8F5F9F4F11F441E050E0CA0141
S11343105AC0039709F008C19E012F5F3F4F4BEF2E
S113432051E088E0FA010190AF01F90101929F0187
S11343308150C1F79E012F5D3F4FAE014F5F5F4F2C
S113434088E0FA010190AF01F90101929F018150C7
S1134350C1F79E01275F3F4FAE014F5D5F4F88E07D
S1134360FA010190AF01F90101929F018150C1F757
S11343709E012F5E3F4FAE01475F5F4F88E0FA0119
S11343800190AF01F90101929F018150C1F79E0193
S1134390275E3F4FAE014F5E5F4F88E0FA01019008
S11343A0AF01F90101929F018150C1F748E050E04B
S11343B0BE01675E7F4FCD0106960E94BF29892BFF
S11343C009F0B2C003C0882309F4AEC0FCE0FD15B7
S11343D008F0AAC0E0902001F0902101F7012281A9
S11343E0822F9927F6E096958795FA95E1F703973A
S11343F019F468E070E002C062E070E0822F99274F
S1134400969587959695879583709070039719F480
S113441088E090E002C082E090E026E030E0E20E26
S1134420F31E40E050E020E030E0F701E80FF91F10
S11344308AEF9FEFE80EF91E05C08191480F511DC8
S11344402F5F3F4F26173707C4F3F70163818FEFC0
S113445080938C028FB7F894782F20E030E0EBE261
S1134460F1E0808191818417950729F48281861770
S113447031F120938C022F5F3F4F33962430310566
S113448081F77FBF90918C023FB7F8949F3F21F052
S113449080911B018917A9F420911B01822F992770
S11344A0FC01EE0FFF1FE80FF91FE55DFE4F51837E
S11344B0408362832F5F237020931B010EC07FBF54
S11344C02FC0892F9927FC01EE0FFF1FE80FF91F5A
S11344D0E55DFE4F518340836283832F99278FBF0D
S11344E00FB7F8941127C7010E94B301FC01908112
S11344F00FBFF70183A5882399F09F3389F4AD2D6D
S1134500AD508701045F1F4F2FB7F89433272FBF97
S11345102A2FA801B701F70183850E9493077C0124
S1134520F0922101E09220018FB7F894992710921C
S113453065018FBF0E940F0A60C280915C018823CD
S113454061F520912A0230912B0240912C02509166
S11345502D02EFB7F894FF276091BC017091BD0163
S11345608091BE019091BF01E0903B01F0903C012D
S113457000913D0110913E016E0D7F1D801F911F22
S1134580EFBF20932A0230932B0240932C025093C6
S11345902D0210925C010E9419040E946F036DC0E9
S11345A00E946F035B016C018FB7F89499271092F6
S11345B096018FBF8091AB0181FF25C08091A3013B
S11345C09091A401A091A501B091A601A601950125
S11345D0281B390B4A0B5B0BE090A701F090A80154
S11345E00091A9011091AA01E21AF30A040B150B18
S11345F03FEFE3163FEFF3063FEF03073FE71307F1
S113460011F061E009C01FEFE12E1FEFF12E1FEF43
S1134610012F1FE7112F60E08091B40181FF21C0B9
S11346208091AC019091AD01A091AE01B091AF0128
S1134630A6019501281B390B4A0B5B0BDA01C90152
S11346402091B0013091B1014091B2015091B30178
S1134650281B390B4A0B5B0B2E153F0540075107EE
S11346602CF0662309F4C9C1A80197011216130698
S1134670140615062CF0C601B5010E94C30CBDC179
S113468020932A0230932B0240932C0250932D0244
S113469081E080935C01C601B5010E941904ADC19B
S11346A09091710180910A01981709F4A6C1909321
S11346B00A019923D1F400911C0110911D0160910C
S11346C09201C8010E94C70B482F5527442309F4BF
S11346D094C18FEF80930A0160911C0170911D01B8
S11346E0F80183850E94BE0788C18FEF80930A0179
S11346F084C140E03DC080911E0190915B012091F6
S113470058018630C9F5959A95980000000080B349
S1134710DB9A9E7F90935B012E7F20935801109229
S1134720290190E082FF91E08091A101992359F041
S11347309927FC01EE0FFF1FE80FF91FE85AFE4FFF
S11347408081877ED5C09927FC01EE0FFF1FE80FFB
S1134750F91FE85AFE4F2081822F8695869586950B
S11347608370992702971CF42D7F2083DEC04AE0D2
S113477060E070E081E023C1DB9A9E7F90935B014F
S11347802E7F2093580110922901CFC080911E01E1
S11347908550823008F59598DB9887ED0E943503A3
S11347A0959882E090E0019701960197E1F710C097
S11347B020E030E0E2E0F0E0959A9598CF0101978F
S11347C001960197E1F72F5F3F4F28303105A1F79C
S11347D0829BEECF8FE0C6C0C0908401D09085014B
S11347E08091B7019091B801892B09F44BC0809155
S11347F07E01082F11270C5F1F4F9598DB9860E00E
S1134800AA24E1E2EE2EE2E0FE2E71E0B72EF3E000
S1134810BF1641F4C6010E9427036C0101501040E9
S113482059F52FC021E0B21681F4F701A0800150A0
S1134830104099F4B0901E01E0908401F09085013D
S11348400091B7011091B80117C0F2E0BF1649F406
S1134850F701608301501040A1F00894E11CF11CA1
S11348600BC0F4E0BF1669F40115110551F0F7010E
S1134870A1907F01015010408A2D0E943503682FBA
S1134880C6CFDB9A80911E0110921E018830B9F0C8
S1134890893048F4833081F0843009F47FC0823059
S11348A009F0ABC088C08A3009F442C08A3010F1E4
S11348B08B3009F0A2C059C040E0B6017FC081E04E
S11348C0809329018091A2019927FC01EE0FFF1F1B
S11348D0E80FF91FDF01AA5ABE4F80916801909139
S11348E069018D939C93E85AFE4F808183608B7F8E
S11348F080831BC081E0809329018091A2019927C4
S1134900FC01EE0FFF1FE80FF91FE85AFE4F9081DC
S11349109360892F8695869586958F5F8370880F1F
S1134920880F880F937E982B90830E94261365C06E
S113493081E0809329018091A1019927FC01EE0F68
S1134940FF1FE80FF91FE85AFE4F808181608083C2
S11349508AE090E0019701960197E1F786E0809361
S11349601E0180E10E948C0148C081E080932901EE
S11349708091A2019927FC01EE0FFF1FE80FF91F98
S1134980DF01AA5ABE4F80916801909169018D930D
S11349909C93E85AFE4F808186600CC08091A201EE
S11349A09927FC01EE0FFF1FE80FF91FE85AFE4F8D
S11349B08081857E808340E060E070E080E00E943A
S11349C0550E1BC02FB7F894332780911D02809396
S11349D0100183E080931F012FBF80911001882371
S11349E061F410920D0110929D0110929E0110929B
S11349F09F011092A0010E946019A8960FB6F89426
S1134A00DEBF0FBECDBFDF91CF911F910F91FF90FD
S1134A10EF90DF90CF90BF90AF9008958091830284
S1134A208F3FB1F0282F3327F901EF5BFE4F8081D0
S1134A30809383028F3F11F4809393028FEF8083DE
S1134A402F3F31F0822F0E94131F81E090E00895E0
S1134A5080E090E008951F93CF93DF93CDB7DEB746
S1134A60E0970FB6F894DEBF0FBECDBF1FB7F89422
S1134A7042E150E06FEF70E081E491E00E94CC29C4
S1134A808FEF809383028093930281E08EBD88E050
S1134A9080BF83E083BF8CB59DB54AE72CB53DB597
S1134AA02817390708F44150442311F0C901F6CFFF
S1134AB092B782B78917E9F32CB53DB592B782B79F
S1134AC08917E9F38CB59DB5821B930B409655E08D
S1134AD0969587955A95E1F7909385028093840281
S1134AE013BE83B78EBD8EB580BF12BE1DBC1CBC69
S1134AF08FEF86BF86B780937C0080B79927877035
S1134B009070892BD1F7D29AD19AD09ADA9AD99AFD
S1134B10D89A15BA8FEF84BBD498DC98D39ADB9AD1
S1134B2095988D9A939A8B9A92988A981DBC1CBCDE
S1134B3087B7846087BF8EB5887F84608EBD0E94EE
S1134B400E258823E1F72FEF209389021092640148
S1134B5081E08093290180E098E090935A0180934A
S1134B605901909357018093560180915B01909174
S1134B705801827E927E826080935B019260909362
S1134B80580120936201EBE2F1E08FEF9FEF9183F4
S1134B9080831282339621E0E733F207C1F70E9443
S1134BA069046093200280910001909101010196B3
S1134BB0AA27BB2780936D0190936E01A0936F0188
S1134BC0B093700180B7886080BF8BE083BF86EEAE
S1134BD081BF87B7826087BF0E9496038EE492E00C
S1134BE090932101809320018E98B89A8C988FEF2E
S1134BF0809383011092C0011092C1011092C201EE
S1134C001092C301B89AD69AD59A8FB7F894992777
S1134C1020910701309108018FBF30938B012093BD
S1134C208A010E94D40529A73AA74BA75CA76DA7C0
S1134C307EA78FA798ABDE019196FE01B99688E016
S1134C4001900D928150E1F7DE015196FE01B1967B
S1134C5088E001900D928150E1F7DE015996FE0142
S1134C60719688E001900D928150E1F7ABEFB1E0CD
S1134C70FE01799688E001900D928150E1F78091D0
S1134C8009019927909367018093660181E18093DC
S1134C90BB018FE080931E020E94D40529A73AA786
S1134CA04BA75CA76DA77EA78FA798ABDE01919653
S1134CB0FE01B99688E001900D928150E1F7DE0182
S1134CC01196FE01B19688E001900D928150E1F7B2
S1134CD0DE011996FE01319688E001900D92815013
S1134CE0E1F7ABEFB1E0FE01399688E001900D9257
S1134CF08150E1F7ABEFB1E0FD0137969C918081E3
S1134D008D939083319781E0EE3FF807B9F781E006
S1134D1080935F0110928D0280936A011092FA01D0
S1134D200E940E258823E1F7812F99278FBF78945D
S1134D300E944A1C8FB7F894482F55274BC087B759
S1134D40992783709070892B19F4E5E0F0E013C083
S1134D5080B7992787709070892BD1F781B792B764
S1134D60891B8C3030F082B7853F18F4E3E0F0E023
S1134D7002C0E2E0F0E087B7887BC1F480917D0057
S1134D808B7FA1F46E9912C08AB190919A00892BFD
S1134D90887161F48091740082FD08C0379B03C060
S1134DA081E090E005C085E090E002C080E090E002
S1134DB025B78E1708F4E82FFF27E055FD4FE4913F
S1134DC0237E2062E22BE5BF78948895F89485B71A
S1134DD08F7D85BF809183028F3F09F4B0CF282F48
S1134DE03327F901EF5BFE4F8081809383028F3F6D
S1134DF011F4809393028FEF80832F3F09F49FCFA8
S1134E004FBF822F0E94131F95CF78941F920F9249
S1134E100FB60F9211241F932F933F934F935F93D9
S1134E206F937F938F939F93AF93BF93EF93FF936E
S1134E3087B78F7E87BF78941FB7F89480917F01DE
S1134E4090918001A0918101B09182010097A10508
S1134E50B10509F051C08091180190911901853074
S1134E60910561F18630910530F48330910549F064
S1134E70049781F51AC087309105F1F0089751F530
S1134E8014C0869B0FC084E090E090931901809336
S1134E9018010E94E90427E030E040E050E00E945D
S1134EA0A60518C00E94821C15C00E94BD08882354
S1134EB089F40E94AC1C0EC080E00AC089E00E9404
S1134EC03F0481E00E94C10583E00E94C10987E09C
S1134ED00E94060E8091130190911401019771F4C0
S1134EE082E090E09093140180931301DE98DE9A9F
S1134EF080E00E94650802C00E940605812F992760
S1134F008FBFFF91EF91BF91AF919F918F917F914F
S1134F106F915F914F913F912F911F910F900FBE11
S1134F200F901F901895ACE2B0E0E9E9F7E20C9419
S1134F308829222E332E442E552E662E772E882E27
S1134F40992EFE013196A8E01192AA95E9F72982DB
S1134F503A824B825C826D827E828F829886FE01C9
S1134F603996B8E01192BA95E9F7A986BA86CB8644
S1134F70DC86ED86FE860F87188B89819A81AB814A
S1134F80BC8189A79AA7ABA7BCA77C018D018FEF31
S1134F909FEFA0E0B0E0E822F9220A231B2389A5B1
S1134FA09AA5ABA5BCA51D014424552489859A85E1
S1134FB0AB85BC858DA39EA3AFA3B8A75C016D018F
S1134FC08FEF9FEFA0E0B0E0A822B922CA22DB2233
S1134FD08DA19EA1AFA1B8A53D0188249924C80143
S1134FE0B701A60195010E94142969A37AA38BA392
S1134FF09CA3C801B701A40193010E9414297B0159
S11350008C01C201B101A60195010E9414295B0122
S11350106C01C201B101A40193010E9414293B0156
S11350204C01EA0CFB1C0C1D1D1D89A19AA1ABA10E
S1135030BCA19D01442755272E0D3F1D401F511F24
S11350402A153B054C055D0540F480E090E0A1E0A5
S1135050B0E0680E791E8A1E9B1ECA01AA27BB27D0
S1135060860D971DA81DB91D8D8F9E8FAF8FB8A378
S1135070A9013327222789A19AA1ABA1BCA1A070C1
S1135080B070280F391F4A1F5B1F298F3A8F4B8F2F
S11350905C8FA98CBA8CCB8CDC8CED8CFE8C0F8D48
S11350A018A1FE01719698E011929A95E9F7ED8A9C
S11350B0FE8A0F8B188F2D813E814F8158856DA1FB
S11350C07EA18FA198A50E9414293B014C012D8536
S11350D03E854F85588969A57AA58BA59CA50E9414
S11350E014292D893E894F89588D260F371F481F53
S11350F0591F260D371D481D591D2D8B3E8B4F8B77
S1135100588F6D887E888F88988C2A2D3B2D4C2D46
S11351105D2D662D772D882D992DE2E1AC960C94AA
S1135120A429A0E1B0E0E7E9F8E20C948829222E52
S1135130332E442E552E662E772E882E992E00233C
S113514009F466C088E0FE01319611928A95E9F768
S113515029833A834B835C836D837E838F82988714
S1135160E0E2E01B1E16CCF52D813E814F8158856F
S1135170602F772767FD7095DA01C901062E04C0F8
S1135180B695A795979587950A94D2F78D879E87AC
S1135190AF87B88B04C0220F331F441F551FEA95F5
S11351A0D2F789819A81AB81BC8104C0B695A79559
S11351B0979587956A95D2F7282B392B4A2B5B2B29
S11351C029873A874B875C8729843A844B845C849B
S11351D06D847E848F8498881BC01D861E861F86DE
S11351E0188A2E2F332727FD3095309521953F4F70
S11351F08D819E81AF81B88504C0B695A79597959A
S113520087952A95D2F789879A87AB87BC87DCCFA5
S1135210222D332D442D552D662D772D882D992D36
S1135220E2E160960C94A429629FD001739FF0017F
S1135230829FE00DF11D649FE00DF11D929FF00D22
S1135240839FF00D749FF00D659FF00D9927729F59
S1135250B00DE11DF91F639FB00DE11DF91FBD01E4
S1135260CF0111240895991B79E004C0991F961762
S113527008F0961B881F7A95C9F780950895AA1B94
S1135280BB1B51E107C0AA1FBB1FA617B70710F02D
S1135290A61BB70B881F991F5A95A9F7809590955F
S11352A0BC01CD01089597FB092E07260AD077FD8E
S11352B004D0E5DF06D000201AF4709561957F4F85
S11352C00895F6F7909581959F4F0895A1E21A2EBF
S11352D0AA1BBB1BFD010DC0AA1FBB1FEE1FFF1F96
S11352E0A217B307E407F50720F0A21BB30BE40BE6
S11352F0F50B661F771F881F991F1A9469F760952D
S11353007095809590959B01AC01BD01CF010895E6
S11353102F923F924F925F926F927F928F929F92C1
S1135320AF92BF92CF92DF92EF92FF920F931F93AF
S1135330CF93DF93CDB7DEB7CA1BDB0B0FB6F89460
S1135340DEBF0FBECDBF09942A88398848885F84A0
S11353506E847D848C849B84AA84B984C884DF8011
S1135360EE80FD800C811B81AA81B981CE0FD11DF5
S11353700FB6F894DEBF0FBECDBFED010895FB015B
S1135380DC0104C08D910190801921F441505040FA
S1135390C8F7881B990B0895DC0101C06D93415037
S10B53A05040E0F70895FFCF2F
S11353A8010001FFFFFFFF010022FFFFFFFFFFFFD6
S10553B80100EE
S9030000FC
